:020000040800F2
:10000000F8070020590200088F2800081D28000862
:100010008D280008F31700084F2C0008000000008E
:10002000000000000000000000000000D1290008CE
:10003000F51700080000000091280008D3290008E7
:1000400073020008730200087302000873020008BC
:1000500073020008730200087302000873020008AC
:10006000730200087302000873020008730200089C
:10007000730200087302000873020008730200088C
:10008000730200087302000873020008730200087C
:10009000730200087302000873020008730200086C
:1000A000730200087302000873020008730200085C
:1000B000730200087302000873020008730200084C
:1000C000730200087302000873020008730200083C
:1000D000730200087302000873020008730200082C
:1000E000730200087302000873020008730200081C
:1000F000730200087302000873020008730200080C
:1001000073020008730200087302000873020008FB
:1001100073020008730200087302000873020008EB
:1001200073020008730200087302000873020008DB
:1001300073020008730200087302000873020008CB
:1001400073020008730200087302000873020008BB
:1001500073020008730200087302000873020008AB
:10016000730200087302000873020008730200089B
:100170007302000873020008730200080000000008
:10018000730200087302000800F002F800F055F84E
:100190000AA090E8000C82448344AAF10107DA45E2
:1001A00001D100F04AF8AFF2090EBAE80F0013F0DF
:1001B000010F18BFFB1A43F001031847AC300000D1
:1001C000CC300000103A24BF78C878C1FAD8520762
:1001D00024BF30C830C144BF04680C6070470000C1
:1001E0000023002400250026103A28BF78C1FBD840
:1001F000520728BF30C148BF0B607047662902F024
:10020000B587642900F03E81782900F07781632961
:1002100000F0A585732900F0AA85002070471FB55E
:1002200002F09FFF00F0A8FD04000020002102F072
:100230000BFFE0601FBD10B510BD00F09DFE114624
:10024000FFF7EDFF02F034FD00F0BBFE03B4FFF753
:10025000F2FF03BC00F0FEFE094880470948004752
:10026000FEE7FEE7FEE7FEE7FEE7FEE7FEE7FEE766
:10027000FEE7FEE704480549054A064B70470000C3
:10028000712A000889010008F8010020F807002001
:10029000F8030020F803002053EA020C00F0698004
:1002A0002DE9F04B4FF00006002B1FBFB3FA83F58A
:1002B00003FA05F424FA05F65E4012BF1643B2FABB
:1002C00082F502FA05F4C5F120051EBF22FA05FCED
:1002D00044EA0C04203556EA044C4FEA144418BF93
:1002E000641C4FF000084FF00009904271EB030CC2
:1002F00039D3002919BFB1FA81F701FA07F6B0FA2C
:1003000080F700FA07F6C7F120071EBF20FA07FCA6
:1003100046EA0C062037B6FBF4FCA7EB0507103FB6
:1003200007F01F0BCBF120060CFA0BFB2CFA06F69C
:1003300044BFB3460026202FA4BF5E464FF0000BFB
:100340005BEA060C08BF4FF0010B19EB0B09ABFB86
:10035000027C48EB0608C01B06FB02CC0BFB03CC5F
:1003600071EB0C01C1E70B46024641464846BDE829
:10037000F08B13B54FF000004FF00001AFF3008099
:10038000BDE81C40704700000FB41CB5074B06AA1F
:100390007B4469460090059800F0B7FC0020694650
:1003A00000F0C6FC1CBC5DF814FB00009D090000B9
:1003B0000FB41CB50C0007AA009001D02044401EC9
:1003C000074B7B4469460190069800F09EFC002C88
:1003D00003D06946002000F0ABFC1CBC5DF814FBA8
:1003E0007509000070B5044685690068C10601D52D
:1003F000302600E02026C00707D070BDD4E90121D7
:1004000030469047206A401C20626D1EF6D570BDB4
:1004100070B5044685690078C00707D170BDD4E97E
:10042000012120209047206A401C20626D1EF6D5D5
:1004300070BD70B50C460546012A05D028788006A7
:1004400000D5EA69002302E0012305E05B1C93422A
:1004500002D2E05C0028F9D1A869E618C01AA861A8
:10046000286A184428622846FFF7BCFF04E0D5E953
:10047000012114F8010B9047B442F8D32846FFF746
:10048000C7FF70BD2DE9F0410646002410687529AC
:10049000314616A510D0AFF30080002802DA4042A2
:1004A00013A507E031688A0701D512A502E04907C4
:1004B00004D511A5012401E0AFF3008000210A2238
:1004C00006F1240709E0B0FBF2FCB0FBF2F302FBFB
:1004D0001C00303078541846491C0028F3D12346BC
:1004E0002A463046BDE8F04100F0A2B90000000005
:1004F0002D0000002B0000002000000070B5044615
:100500000D4621461068AFF300802188090502D509
:100510000F4A7A4402E00E4A7A440E32002104F176
:10052000240305E000F00F060009965D5E54491CA7
:100530000028F7D120780023000704D5702D02D0C1
:1005400009B1022311322046BDE8704000F070B9B5
:10055000722C00002DE9F05F894604464FF0000A36
:10056000DFF824B1FB44C0F820A02046E1688847AA
:1005700000287DD0252806D0D4E901219047206AA3
:10058000401C2062F1E700255F462046E16888476D
:100590002028064607DB312E05D2B81910F8200CAA
:1005A00008B10543F1E7A80701D525F00405C4F813
:1005B0001CA00027C4F818A02A2E09D0304602F04B
:1005C0006FFB38B304EB8708303EC8F8186019E0B9
:1005D00059F8041B204604EB87029161E1688847C3
:1005E000012F064618D1E069002820DA25F0200501
:1005F0001DE0D8F8180000EB800006EB4000303812
:10060000C8F818002046E1688847064602F048FB13
:100610000028EED1012F0AD02E2E08D12046E16805
:1006200088477F1C0646022F45F02005C4DBA069E1
:10063000002803DA404245F00105A061E80701D037
:1006400025F01005A6B1A6F14100192802D82036E0
:1006500045F400654A463146204625604D46FFF781
:10066000CDFD60B1012807D0ED1D25F0070000E0A9
:1006700007E000F1080978E705F1040975E730465D
:100680007AE7206ABDE8F09F482C000030B50546A7
:100690000B462A4613F8014B12F8010B08B1A04291
:1006A000F8D01CB1002802D06D1CF1E7284630BDFF
:1006B00010B5431C02E010F8011B71B18107FAD19B
:1006C0004FF0013202C88C1A8C4314EAC211F9D0DF
:1006D000C01A0A0603D0C01E10BDC01A10BD0A04FD
:1006E00001D0801E10BD0902FCD0401E10BD032A9F
:1006F00040F2308010F0030C00F0158011F8013B3F
:10070000BCF1020F624498BF11F801CB00F8013B25
:1007100038BF11F8013BA2F1040298BF00F801CBE9
:1007200038BF00F8013B11F0030300F02580083AC0
:10073000C0F0088051F8043B083A51F804CBA0E817
:100740000810F5E7121D5CBF51F8043B40F8043B6C
:10075000AFF30080D20724BF11F8013B11F801CBA1
:1007600048BF11F8012B24BF00F8013B00F801CB72
:1007700048BF00F8012B704710B5203AC0F00B803D
:10078000B1E81850203AA0E81850B1E81850A0E895
:100790001850BFF4F5AF5FEA027C24BFB1E81850EF
:1007A000A0E8185044BF18C918C0BDE810405FEA5F
:1007B000827C24BF51F8043B40F8043B08BF7047DB
:1007C000D20728BF31F8023B48BF11F8012B28BFE0
:1007D00020F8023B48BF00F8012B70474FF00002A1
:1007E00000B5134694469646203922BFA0E80C5027
:1007F000A0E80C50B1F12001BFF4F7AF090728BF02
:10080000A0E80C5048BF0CC05DF804EB890028BF7D
:1008100040F8042B08BF704748BF20F8022B11F0A6
:10082000804F18BF00F8012B704770477047704722
:100830002DE9F0470D4699469246044600F12408FA
:100840000168880604D5E06921F01001216000E00C
:100850000120A84201DD471B00E00027A1697A19A9
:1008600002EB0900081AA0612078C00602D42046D5
:10087000FFF7B8FD002608E0D4E901211AF80600C8
:100880009047206A401C761C20624E45F4DB20789D
:10089000C0060AD52046FFF7A5FD06E0D4E90121F0
:1008A00030209047206A401C2062381EA7F10107C3
:1008B000F4DC07E0D4E9012118F805009047206A2C
:1008C000401C2062281EA5F10105F3DC2046FFF73D
:1008D0009FFD2078000602D50220BDE8F0870120A8
:1008E000FBE770472DE9FF4F0C461E464FF0FF37E0
:1008F0008BB0D2E90001DDF860800A908A46C1F32E
:100900000A5505B93D46002108464FF00000BAF1EE
:10091000000F00F4400005DA00EB80004FF44001C6
:1009200001EA50004FEA9059B9F1010F00DDB946D4
:100930000A9850EA4A000ED044F61050A5F2FF354E
:1009400045432F14B8F1000F1ED07542291E1EDD3D
:10095000C9F100021CE0B8F1010F4FF0000001D016
:10096000302103E0F24305E02154401CB042FBDBA0
:1009700030460022002121540B99C1F80880C1E9BA
:1009800000200FB0BDE8F08FBD1B6D1CDEE74A46AE
:1009900000DA694206A800F079FA06AB93E807008E
:1009A00003AB83E8070050460A9900F05AFB8DE834
:1009B0000700A0F500501F3800900398002D0ADDB5
:1009C00042F21F014A460844002303A903906846E7
:1009D00000F0C3FD09E0A0F500504A461F3800238F
:1009E00003A90390684600F0CDFD8DE807000004E0
:1009F000000C03D04FF0FF30410800E01046B8F182
:100A0000000F03D00022009215461EE0751E05D48B
:100A100000F0B6F9303262556D1EF9D5B3460122A9
:100A2000084302D000227F1C04E02078302801D146
:100A300000227F1E002A099784D01DE0112D07DABD
:100A400000F09EF9303262556D1C50EA0102F5D17A
:100A5000084302D00098C8B10EE00021681E05E0EE
:100A6000235C625C63542254401E491C8142F7DBC4
:100A7000AB46A81B401E0990002004F80B000B9801
:100A8000099AC0F80880C0E9002B7AE711264FF0D8
:100A9000000857E72DE9F04F88460446D21D22F0A2
:100AA000070191B0D1E90001CDE90A0102F0D0F8C7
:100AB00002460B98C00F01D02D2007E02068810767
:100AC00001D52B2002E0202101EAC000032A099071
:100AD00001D0072A05DB03464146204600F096F97F
:100AE0000BE12078800601D5E06900E00620B8F12E
:100AF000650F814606D0B8F1660F18D0B8F1670FC0
:100B000070D131E00020B9F1110F009001DB112309
:100B100001E009F101030AAA01A90CA8FFF7E2FE0E
:100B2000DDE90C70002609F10105834647E001204C
:100B30004B4600904FF000470AAA01A90CA8FFF706
:100B4000D1FEDDE90DB00C995D46002610B909F122
:100B500001000D18B9EB050003D4C0F1FF3609F10F
:100B60000105A5EB09002BE0B9F1010F01DA4FF007
:100B700001090020B9F1110F0090484601DD112351
:100B800000E003460AAA01A90CA8FFF7ABFEDDE9C5
:100B90000C704D4600268346207800070AD4AB45EA
:100BA00000DA5D4601A8012D04DD411911F8011C90
:100BB000302907D04F4502DA17F1040F04DA01207B
:100BC00082460FE06D1EEEE7002F02DCED1B3E4477
:100BD00003E0781CA84200DD7D1CB81B00F1010A6F
:100BE0004FF000472078000703D4AA4501DB4FF0FF
:100BF000FF3A0021B7F1004F0DF143088DF8431083
:100C000024D002202B23002F01DA7F422D230A213A
:100C1000021EA0F1010000DC5FB197FBF1FC97FB25
:100C2000F1F201FB1C7C17460CF1300C08F801CDE9
:100C3000EEE7A8F1010003702188090501D54521DF
:100C400000E06521A0F1010800F8011C09980FA936
:100C5000A1EB0807FF1D00B10120411901EBEA706B
:100C6000A1693844081A401EA0612078C00602D449
:100C70002046FFF7B7FB099828B1D4E90121904736
:100C8000206A401C20622078C00622D52046FFF74B
:100C9000A9FB1EE0002E04DBB34502DD01A8805D48
:100CA00000E03020D4E901219047206A401C2062F6
:100CB000761CAAF101005FEA000A0AD100F05CF894
:100CC000C0680168405CD4E901219047206A401C5B
:100CD0002062281EA5F10105DCDC07E0D4E9012132
:100CE00018F8010B9047206A401C2062381EA7F1BB
:100CF0000107F3DC2046FFF78BFB032011B041E630
:100D000001694A1C02610878704700B58FB0CDE9CF
:100D100001310021059105497944CDE903101146BF
:100D20006846FFF717FC0FB000BD0000E5FFFFFFAE
:100D30000A6802F8010B0A607047D1E900239A4261
:100D400002D2531C0B601070704710B5436913B189
:100D5000AFF3008001E0FFF76CFB012010BD1278BB
:100D600000F124010A7000224A700122EDE71168A7
:100D70004FF0FF32E9E7000000487047B40100205F
:100D800030B5B0F10A024FEA900E71F100034EEA5D
:100D9000817EB0EB0E0061EB91014FEA101E4EEA2E
:100DA000017E10EB0E0041EB11114FEA102E4EEABE
:100DB000016E10EB0E0041EB11214FEA104E4EEA8E
:100DC000014E10EB0E0041EB1141401841F10001C2
:100DD0004FEAD00040EA41704FEAD10110EB8005A4
:100DE0004FEA810444EA907444EB01046D1944EB2A
:100DF0000404521BA3414FF0000348BF0A3200D540
:100E000030BD401C41F1000130BD00002DE9F04132
:100E10001F46044603260168072A01F4006004DB2C
:100E200008B116A505E016A503E008B115A500E078
:100E300015A521F010002060A069C01EA0610FB1AF
:100E4000401EA0612046FFF7CDFA4FB1D4E9012141
:100E500038469047206A401C2062C01C206206E091
:100E6000206AFAE7D4E9012115F8010B9047761EB4
:100E7000F8D22046FFF7CCFABDE8F0814E414E0093
:100E80006E616E00494E4600696E66002DE9F047BE
:100E9000814616468AB0354878440DC88DE80D0065
:100EA00032487844801C03AC0DC884E80D0041F63C
:100EB0009B300844372190FBF1F290FBF1F5A5F14E
:100EC000800501FB12041B3C02D56442012000E0B6
:100ED0000020DFF898A080460027FA44AAF1BE0A55
:100EE0000EE0E0070AD03246684607EB47010123CF
:100EF0000AEB810100F046FB8DE8070064107F1CBF
:100F0000002CEED1194F7F44AE3F19E0E80715D011
:100F100007EB04100DF1180A90E80E008AE80E00A5
:100F2000C068F04201D1981908903246012306A901
:100F300003A800F027FB03AB83E807006D10641CD7
:100F4000002DE3D14FF0010332466946B8F1000F9E
:100F500003A802D000F001FB01E000F013FBC9E997
:100F60000001C9F808200AB0BDE8F087A4230000FA
:100F700000487047940100207546FFF7F9FFAE4620
:100F800005006946534620F00700854618B020B595
:100F9000FFF770F9BDE820404FF000064FF0000762
:100FA0004FF000084FF0000B21F00701AC46ACE811
:100FB000C009ACE8C009ACE8C009ACE8C0098D467E
:100FC000704710B50446AFF300802046BDE81040DE
:100FD000FFF73CB94FF0013C50F8042B51F8043BAB
:100FE0009A4221D1A2EB0C03934313EACC1317D1FD
:100FF00050F8042B51F8043B9A4215D1A2EB0C0394
:10100000934313EACC130BD150F8042B51F8043B53
:101010009A4209D1A2EB0C03934313EACC13DBD021
:101020004FF00000704700BFD01A01BAB1FA81F149
:1010300001F0180122FA01F0CB40C1F12001DBB22E
:10104000C0B2C01A2CFA01F3D11A914311EAC311AC
:10105000E6D1704701491820ABBEFEE7260002002A
:1010600070475FEA400C08BF91F0000F4FEA8C23F5
:101070004FEAC12243EA51514FEA1C5018BF00F514
:10108000F0404FEA300018BF41F000415FEA6C5C6D
:1010900000F02980BCF1FF3F08BF40F0804070475E
:1010A000130C06BF12044FF0100C4FF0000C130E7F
:1010B00004BF12020CF1080C130F04BF12010CF153
:1010C000040C930F04BF92000CF1020CD30F04BF69
:1010D00052000CF1010C11464FF00002A0F11F006C
:1010E000A0EB0C00704711F0004F08BF704731F0C3
:1010F00000413FF4D5AF0B0C06BF09044FF0100CB4
:101100004FF0000C0B0E04BF09020CF1080C0B0F82
:1011100004BF09010CF1040C8B0F04BF89000CF112
:10112000020CCB0F04BF49000CF1010CCCF12003E1
:10113000A0EB0C0022FA03F302FA0CF241EA0301DD
:1011400000F10100704720F07F4C80EA030023F09B
:101150007F47ACEB070303F57C5300F0004003F13D
:10116000FF032DE980494FEA154B09B44FEA1443B8
:1011700025EA0B4E24EA03480FF2042606EB132758
:1011800049083E785FEA320203FB0667C7F50007AD
:1011900007FB06F64FEA54374FEAD64606F1020639
:1011A00007FB066CCCF1005C4FEA1C472CEA074CAD
:1011B00007FB06F40CFB06F504EB15464FEA961602
:1011C00034BF00204FF000404FEAD13706FB07FC48
:1011D0004FEA1C4C0CFB0BF7D21B03FB0CF761EB2B
:1011E00007010CFB0EF7B0EB074072EB17420CFB4C
:1011F00008F734BFA2EB0742B2EB074261EB17419D
:101200004FEA0C444FEA910706FB07FC4FEA1C4CDF
:101210000CFB0BF7B0EBC74072EB573203FB0CF73C
:1012200034BFA2EBC742B2EBC74261EB57310CFBB4
:101230000EF7B0EBC70072EB57720CFB08F734BF28
:10124000A2EBC702B2EBC70261EB5771039F4FEAF3
:10125000816141EA921104EBCC044FEAD1374FEAA5
:10126000826206FB07FC42EA90124FEA80604FEA76
:101270001C4C0CFB0BF7D21B03FB0CF761EB0701BB
:101280000CFB0EF7B0EB074072EB17420CFB08F7B4
:1012900034BFA2EB0742B2EB074261EB17414FEAC2
:1012A0008C554FEA910704EB9C2406FB07FC4FEAA0
:1012B0001C4C0CFB0BF7B0EBC74072EB573203FB37
:1012C0000CF734BFA2EBC742B2EBC74261EB573118
:1012D0000CFB0EF7B0EBC70072EB57720CFB08F774
:1012E00034BFA2EBC702B2EBC70261EB577115EB3B
:1012F0004C254FEA816141EA92114FEA82624FEA3E
:10130000D13742EA901206FB07FC44F100044FEA91
:1013100080604FEA1C4C0CFB0BF7D21B03FB0CF755
:1013200061EB07010CFB0EF7B0EB074072EB1742C5
:101330000CFB08F734BFA2EB0742B2EB074261EBAC
:10134000174115EB1C154FEA813141EA92414FEAF2
:10135000823242EA90424FEA80304FEA0C7644F102
:10136000000448EA03434EEA0B484FF0000EB2EB8C
:10137000080C71EB030724BF624639464EEB0E0E94
:101380004FF0000B0018524149414BEB0B0BB2EBF5
:10139000080C71EB03077BF1000B24BF6246394652
:1013A0004EEB0E0E4FF0000B0018524149414BEB33
:1013B0000B0BB2EB080C71EB03077BF1000B24BFA6
:1013C000624639464EEB0E0E51EA020718BF46F050
:1013D000010616EB0E7655F1000254F1000103D51B
:1013E000BDE88901BDE80088BDE88901BDE8004885
:1013F000B619524141EB0101A3F10103704780800E
:101400007F7E7D7C7B7A797877767675747372715E
:1014100071706F6E6E6D6C6C6B6A6A696868676616
:1014200066656464636362616160605F5F5E5E5DA8
:101430005D5C5C5B5B5A5A5959585857575656551C
:1014400055555454535352525251515050504F4F7E
:101450004F4E4E4D4D4D4C4C4C4B4B4B4A4A4A49CE
:101460004949484848474747474646464545454411
:101470004444444343434342424242414141002B9E
:101480009C4630D477002BD01CB54FEA370703B405
:101490004FF010004FF01001BAF1000F06D0BCF170
:1014A000000FDCBF40F0080040F008014FF00000E2
:1014B0000FBCBDE810400BF1010BBBF1010F08BFE1
:1014C0005FEA170722BF12F1010211F101014FF08B
:1014D000004143F1000300F0004043EA0000704780
:1014E000F9D35708D0E746EA064613F1400F4FEA12
:1014F00016461FDD13F1200FDFBF16430A460021F9
:1015000020335B42BED0C3F1200746EA064602FA0A
:1015100007F74FEA164646EA0706C3F1200722FA04
:1015200003F201FA07F721FA03F14FF0000342EA50
:101530000702A7E746EA020646EA06464FEA1646CB
:1015400046EA0106BCBF46EA0646360C4FF00003E9
:101550004FF000024FF0000194E72DE9804C9A46CD
:10156000934670B491E8380007C831EA400C48BF90
:1015700034EA430C03D5FFF7E6FDFFF780FFF0BC2C
:10158000BDE8008C2DE9804C9A46934670B491E8F2
:10159000380007C810F0804F08BF13F0804F03D108
:1015A00000F005F8FFF76BFFF0BCBDE8008C20F001
:1015B0007F4780EA030023F07F4C07EB0C03A3F581
:1015C0007C5300F00040A3F1FE0392F0000F00F006
:1015D000B38095F0000F00F077802DE901494FEAC4
:1015E00011404FEA144621EA004800FB06FC24EAB9
:1015F000064708FB06F607FB08F800FB07F718EBA1
:1016000006484CEB164C4FEA124B18EB07484FEAD2
:1016100015464CEB174022EA0B4E0BFB06FC25EA65
:1016200006470EFB06F607FB0EFE0BFB07F71EEB4D
:10163000064E4CEB164C4FF000061EEB074E4CEBE3
:10164000174B18EB0B0840F1000018EB0E0B58EB92
:10165000000840F100008F1A4FF000013CBFC94361
:10166000661B14BFB5EB040C00213CBFC943F61B3D
:101670004FEA17444EEA8E0E27EA04454FEA1C470C
:1016800004FB07622CEA074C05FB07F70CFB05F689
:1016900004FB0CFC16EB074642EB174216EB0C461C
:1016A00042EB1C421BEB060658EB0202414146EAA4
:1016B0009E0601D5BDE80189B619524141EB0101F1
:1016C000A3F10103BDE801894FEA14454FEA114730
:1016D00024EA054621EA074C05FB07F406FB07F759
:1016E0000CFB06F105FB0CFC11EB074144EB174426
:1016F0004FEA124711EB0C4144EB1C4422EA074C21
:1017000005FB07F206FB07F70CFB06F605FB0CFCD6
:1017100016EB074642EB174216EB0C4642EB1C4514
:101720006A1854F1000148BF7047B619524141EBA5
:101730000101A3F10103704795F0000F37D04FEA84
:1017400011424FEA144721EA024624EA074C02FB01
:1017500007F106FB07F70CFB06F402FB0CFC14EB8D
:10176000074441EB17414FEA154714EB0C4441EB9A
:101770001C4125EA074C02FB07F506FB07F70CFBAB
:1017800006F602FB0CFC16EB074645EB174516EB7D
:101790000C4645EB1C42121951F1000148BF70473D
:1017A000B619524141EB0101A3F1010370474FEA21
:1017B00014454FEA114724EA054621EA074C05FB88
:1017C00007F106FB07F70CFB06F24FF0000605FBDE
:1017D0000CFC12EB074241EB174112EB0C4251EBB0
:1017E0001C4148BF7047921841EB0101A3F101036E
:1017F0007047FEE77047000001490860704700002D
:1018000000000020F0B5194E0746A1B0306800284E
:1018100029D03846FEF74CFFC5B202208DF80000F3
:101820006C468DF801502A463946A01CFEF75FFF32
:10183000A81C631C6D1CC2B20021EDB2084603E077
:101840001F5C7940401CC0B2A842F9D3C843A054E1
:10185000521CD0B203212154401CC2B20B1F694656
:10186000306800F0F7FD21B0F0BD0000000000205E
:1018700070B5044600F010F90546601C02D004481B
:101880000078044400F008F9401BA042FAD370BD70
:10189000200000202DE9F84FDFF8BCA1002201252F
:1018A00003264FF00F090AF1040BAAF1040E00BF42
:1018B0000B6805FA02F42340A34270D10F7907F0B8
:1018C0000307012F01D0022F16D187684FEA420883
:1018D00006FA08FC27EA0C07D1F80CC00CFA08FC41
:1018E0004CEA070CC0F808C04768A7430C79C4F35A
:1018F000001494403C4344600C79E443A4070AD0AC
:10190000C4684FEA420C06FA0CF7BC438F6807FA2A
:101910000CF72743C7600C7904F00304022C12D1A2
:10192000D40800EB840CDCF820405707FF0E09FABE
:1019300007F824EA0804D1F8108008FA07F848EA02
:101940000408CCF8208004684FEA420C06FA0CF731
:10195000BC430F7907F0030707FA0CF7274307602A
:101960004C6814F4403F70D03C4C276847F48047E3
:101970002760246822F0030704F480440094384C64
:1019800007EB040CDCF8084897074FEA177809FAC8
:1019900008F7BC43334FB84202D1002724E054E09B
:1019A000314FB84201D101271EE0304FB84201D17A
:1019B000022719E02E4FB84201D1032714E02D4F22
:1019C000B84201D104270FE02B4FB84201D10527BF
:1019D0000AE02A4FB84201D1062705E0284FB84255
:1019E00001D1072700E0082707FA08F72743CCF8BA
:1019F0000878DAF800405746D1F804C09C435FEA03
:101A0000CC2C00D51C433C60DBF800405F46D1F88D
:101A100004C09C435FEA8C2C00D51C433C60DEF87C
:101A200000407746D1F804C09C435FEA8C3C00D567
:101A30001C433C60084F083F3C68D1F804C09C43FD
:101A40005FEACC3C00D51C433C60521C102AFFF4DA
:101A50002FAFBDE8F88F0000083C01404438024039
:101A60000030014000000240000402400008024033
:101A7000000C024000100240001402400018024016
:101A8000001C02400069084000D0012070470AB1E4
:101A9000816170470904FBE70148806870470000D6
:101AA0002000002070B5040011D021684CF6CC4015
:101AB0000860216845F255500860D4E90001416092
:101AC0002168A0688860FFF7E7FF05460DE0012068
:101AD00070BD00BFFFF7E0FF401B312805D920682B
:101AE000C068800701D0032070BD2068C0688007EF
:101AF000F0D121684AF6AA200860002070BD0000DD
:101B000002488168027811448160704720000020FB
:101B10000B4810B5016841F400710160016841F49F
:101B200080610160016841F480710160032000F070
:101B300061F80F2000F006F800F024F8002010BD36
:101B4000003C024070B50D4D04464FF47A71287880
:101B5000B1FBF0F00A490968B1FBF0F000F046FB78
:101B600048B9102C07D200222146501E00F022F85E
:101B700000206C6070BD012070BD000020000020BE
:101B80002C0000200A4808B5016841F4804101603A
:101B9000006800F4804000900548001F016841F093
:101BA00080510160006800F08050009008BD000086
:101BB00044380240F0B40E4B1B680C46C3F30223BA
:101BC000C3F10705042D00D90425191D072901D2E9
:101BD000002300E0DB1E012606FA05F1491E214024
:101BE00099409E40761E16403143F0BC01F048B843
:101BF0000CED00E0064900F0070208684FF6FF030D
:101C0000184040EA0220034A104308607047000071
:101C10000CED00E00000FA05BFF34F8F05480168A6
:101C2000054A01F4E06111430160BFF34F8F00BF2B
:101C3000FDE700000CED00E00400FA0502494A68E7
:101C400002434A6070470000007000400548016888
:101C500041F0020101600448016841F004010160A3
:101C600030BF70470070004010ED00E00C4A136870
:101C700023F00303034313600A48026842F004029E
:101C80000260012909D0032901D040BF20BF20BF35
:101C9000016821F004010160704730BFF8E70000DF
:101CA0000070004010ED00E02DE9F0470E46050001
:101CB00065D0DFF81481D8F80000F7B200F0070013
:101CC000B04207D288F80070D8F8000000F0070092
:101CD000B04254D128683D4C810712D5400703D546
:101CE000206840F4E05020602878000703D5206881
:101CF00040F4604020602068A96820F0F0000843AC
:101D000020602878C0072DD030496868083901283C
:101D100012D0022813D0032811D00968890700299E
:101D20002DDA216821F0030101432160FFF7B4FEA1
:101D3000814641F2883A0EE009688903EFE70968B5
:101D40008901ECE7FFF7A8FEA0EB0901514502D994
:101D50000320BDE8F0872068696800F00C00B0EB54
:101D6000810FEFD1D8F80010404601F00701B142D1
:101D700007D90770006800F00700B04201D00120C9
:101D8000E7E72878400705D52068E96820F4E050A7
:101D9000084320602878000706D52068296920F4C8
:101DA000604040EAC100206000F038F82168084A2D
:101DB000C1F30311515CC840064908600648006839
:101DC000FFF7C0FE0020C4E7003C02400838024094
:101DD000703100082C000020240000200448054930
:101DE00000680968044AC1F38221515CC840704709
:101DF0002C000020083802408031000804480549C2
:101E000000680968044AC1F34231515CC840704718
:101E10002C0000200838024080310008154810B519
:101E2000006810F00C02144813D01449042A0FD093
:101E3000082A0ED10F4C241F2268236802F03F02AB
:101E40005B0207D52068C0F38810A0FB010106E003
:101E5000084610BD2168C1F38811A1FB00010023D1
:101E6000FEF71AFA2168C1F30141491C4900B0FB91
:101E7000F1F010BD083802400024F40040787D01E4
:101E80002DE9F84F04006ED02078DFF84C93C0079E
:101E9000A9F104054AD009F104000168C1F38101E8
:101EA000012908D00068C0F3810002280AD1D9F8BE
:101EB0000000400206D52868800337D560680028F6
:101EC000E1D033E06068B0F5803F10D0B0F5A02FCE
:101ED000286810D020F480302860286820F4802002
:101EE00028606068A8B1FFF7D7FD06460DE02868B6
:101EF00040F48030F4E740F480202860F7E700BF2A
:101F0000FFF7CAFD801B642873D828688003F7D5C3
:101F10000CE0FFF7C1FD064605E000BFFFF7BCFD82
:101F2000801B6428F0D828688003F7D42078DFF875
:101F3000AC8280074FF0000A3ED5A748001D01681B
:101F400011F00C0F08D00068C0F3810002280BD1FB
:101F5000D9F80000400207D42868800716D5E06849
:101F6000012800D112E033E1E068B8B10120C8F8DF
:101F70000000FFF791FD064605E000BFFFF78CFD6E
:101F8000801B0228C0D828688007F7D528682169F7
:101F900020F0F80040EAC10028600DE0C8F800A079
:101FA000FFF77AFD064604E0FFF776FD801B022866
:101FB0001FD828688007F7D42078000722D5864FDD
:101FC00087486169703771B101210160FFF764FDD5
:101FD000064604E0FFF760FD801B022809D8386838
:101FE0008007F7D50EE0C0F800A0FFF755FD0646C4
:101FF00005E082E0FFF750FD801B02287DD838689D
:102000008007F7D42078400768D5DFF8CCB10027E7
:102010000BF13C0BDBF80000C0000BD4DBF8001028
:1020200041F08051CBF80010DBF80000012700F0F0
:10203000805000906B4E3068C00510D4306840F47A
:1020400080703060FFF728FD009005E0FFF724FD69
:102050000099401A022850D83068C005F6D55E4E67
:10206000A0686C3601280FD00528306810D020F009
:1020700001003060306820F004003060A068B8B122
:10208000FFF70AFD00900FE0306840F00100F4E730
:1020900040F004003060F7E7FFF7FEFC0099411ABA
:1020A00041F28830814266D830688007F4D50EE06E
:1020B000FFF7F2FC009007E0FFF7EEFC0099411AF1
:1020C00041F28830814256D830688007F4D42FB16D
:1020D000DBF8001021F08051CBF80010A069C8B3E4
:1020E0003D49091D0968C1F3810102294AD002282E
:1020F000504607D0C8F8600000E03CE0FFF7CCFC99
:1021000004463BE04746C8F86000FFF7C5FC0646BA
:1021100005E000BFFFF7C0FC801B02282BD8286811
:102120008001F7D4D4E907010843A16A2E4A49087F
:1021300002EB0141626A41EA8211084394F82C10D3
:1021400040EA0161C9F8001001203866FFF7A4FCDD
:10215000044606E03EE000BFFFF79EFC001B02289D
:1021600009D828688001F7D534E000BFFFF794FC58
:10217000001B022802D90320BDE8F88F28688001DF
:10218000F4D427E00128F7D0D9F80000E26900F480
:10219000800191421CD1226A00F03F01914217D187
:1021A00047F6C071626A0140B1EB821F10D1A26A8A
:1021B0004FF0FF3300F4403103EB5202B1EB024F1A
:1021C00006D194F82C1000F07060B0EB016F01D0D4
:1021D0000120D1E70020CFE7043802400000474249
:1021E000800E4742007000400000FFFF10B5401E07
:1021F000B0F1807F01D3012010BD4FF0E024606179
:102200000F21601700F03CFD0020A0610720206135
:10221000002010BD70B5040004D094F841000025E2
:1022200010B106E0012070BD84F84050204600F057
:1022300023F8242084F841002068C16821F400516B
:10224000C160204600F044FC2068016921F49041FF
:1022500001612068416921F02A0141612068C1685B
:1022600041F40051C1606564202084F8410084F885
:1022700042006563002070BDF0B587B004461421AC
:102280006846FEF7ABFA27683F493E4C00223E4BBA
:102290001439022503263D484FF0070CA74217D1F9
:1022A0001C6844F010041C601B6803F010030593C5
:1022B0000B6843F001030B60096802AC01F00101F7
:1022C00005917102CDE9001584E8441069461AE0D1
:1022D0002D4CDFF8BCE0241F774518D1236843F468
:1022E00000332360236803F4003305930B6843F045
:1022F00001030B60096801F0010105910C21CDE992
:10230000001569461CE0FFF7C5FA07B0F0BD21488B
:10231000874219D1206840F480202060206800F4B2
:1023200080200590086840F002000860086869464F
:1023300000F0020005904FF44060CDE9000516481A
:1023400002AB83E84410DEE714488742DDD1186809
:1023500040F020001860186800F020000590086820
:1023600040F0040008600868029200F00400059044
:10237000C020CDE900050820CDE903606946084882
:10238000C1E7000000100140443802400000024054
:102390000044004000480040000402400014014096
:1023A000000802402DE9F84F044690F842009A4692
:1023B00016460D46202802D00220BDE8F88FB5B1A0
:1023C000AEB100206064222184F842102063FFF740
:1023D00063FBA6858146E685A0684FF480582027D8
:1023E000404501D1206920B12E46002529E0012079
:1023F000E3E7002625E04B46002220212046CDF8C9
:1024000000A000F0EBFB18B184F842700320D4E781
:1024100026B1A06840451AD038B108E0206840686D
:10242000C0F3080025F8020B08E0206978B12068A5
:10243000406800F07F0000BF06F8010BE08D401EF1
:10244000E085E08D0028D6D184F84270B5E7206899
:102450004068F1E72DE9F843044690F841009846BA
:1024600016460D46202802D00220BDE8F88385B12B
:102470007EB100206064212084F84100FFF70CFB4E
:10248000A6848146E684A0682027B0F5805F02D04C
:1024900003E00120E9E7206910B12E4600250EE097
:1024A00000260CE08021204600F098FBA8B9C6B1B8
:1024B00016F8010B21684860E08C401EE084E08C37
:1024C0004B464FF00002CDF800800028EAD14FF0D3
:1024D0004001204600F082FB40B184F841700320A7
:1024E000C3E735F8020BC0F30800E3E784F8417056
:1024F0000020BAE710B500231A4603E0845C63406D
:10250000521CD2B28A42F9D3D843C0B210BD0000E7
:102510001C220149FEF730B9300000200149486013
:10252000704700000400002010B50446FEF7C0F814
:1025300082B2044821464FF0FF334068BDE81040A6
:10254000FFF788BF04000020F0B595B00E460446A2
:1025500008297FD3207801287CD1B4F80500E579DB
:1025600047BA07212046FFF7C5FFA84201D03CA08B
:102570006EE0A7F52061404D133904F108000CD03E
:10258000012927D0022935D0032949D03B463BA257
:10259000402104A8FDF70CFF59E0152E5AD30C2159
:1025A000FFF7A8FF217D884201D03CA050E0A6683B
:1025B000EE60E068286100F063FD04460D46304699
:1025C00000F05EFD8DE833003DA2402104A8FDF738
:1025D000EFFE3CE00D2E3DD30421FFF78BFF217B66
:1025E000884201D03FA033E0A068E86000F048FDD9
:1025F00045A20EE00D2E2DD30421FFF77BFF217B9A
:10260000884201D046A023E0A068286100F038FD90
:102610004CA2CDE90001402104A8FDF7C9FE16E057
:10262000112E17D30821FFF765FF217C884203D0C4
:1026300000E00FE049A00BE05149E068A86109689B
:10264000012909D04FA2402104A8FDF7B1FE04A83A
:10265000FFF76AFF15B0F0BD00F012FD4FA2D8E7FA
:1026600048656164657220636865636B73756D208E
:102670006572726F720D0A0030000020556E6B6E2D
:102680006F776E206672616D6520747970653A208F
:102690003078253034580D0A000000004461746120
:1026A00020636865636B73756D206572726F72204D
:1026B00028416C6C2044617461290D0A00000000FF
:1026C0004272656174683A20252E32662062706D10
:1026D0002C2048656172743A20252E326620627083
:1026E0006D0D0A004461746120636865636B7375E6
:1026F0006D206572726F7220284272656174682065
:1027000052617465290D0A00427265617468205235
:102710006174653A20252E32662062706D0D0A00C4
:102720004461746120636865636B73756D206572C5
:10273000726F722028486561727420526174652935
:102740000D0A0000486561727420526174653A2078
:10275000252E32662062706D0D0A0000446174619E
:1027600020636865636B73756D206572726F72208C
:102770002844697374616E6365290D0A00000000C6
:10278000040000204E6F20746172676574206465D8
:102790007465637465642E0D0A00000054617267ED
:1027A00065742044697374616E63653A20252E3226
:1027B0006620636D0D0A000030B591B04021684677
:1027C000FEF70CF8144D6423082269466868FFF789
:1027D000E9FD00281AD1BDF8050040BAA0F5206136
:1027E000133915D0A0F52061163913D05FF004021B
:1027F00002F10904642302A9521C6868FFF7D2FDA4
:10280000002803D121466846FFF79EFE11B030BD77
:102810000C22EDE70822EBE704000020FEE70000B1
:1028200000B587B014216846FDF7D8FF1548002190
:10283000026842F080020260026802F080020592A3
:10284000026842F004020260026802F0040205928B
:10285000026842F001020260026802F00102059281
:10286000026842F0020202600068029100F0020079
:1028700005900320CDE9000169460348FFF70AF8F7
:1028800007B000BD3038024000080240FEE7FEE716
:102890007047000001490860704700000C000020EC
:1028A0002DE9F041A6B088460746342119A8FDF766
:1028B00095FF3A4C00264FF47A7539A16846FDF72A
:1028C00063FD6846FDF7F4FE82B22B466946206838
:1028D000FFF7C0FD6423322219A92068FFF762FDCB
:1028E0002846FEF7C5FF30A119A8FDF7CFFE00B1BD
:1028F00001262846FEF7BCFF342119A8FDF76EFF1C
:10290000002EDAD029A16846FDF73EFD6846FDF7A6
:10291000CFFE82B22B4669462068FFF79BFD6423F9
:10292000322219A92068FFF73DFD2846FEF7A0FFD7
:10293000342119A8FDF752FF3A461FA16846FDF75A
:1029400023FD6846FDF7B4FE82B22B466946206837
:10295000FFF780FD6420FEF78BFF1A2342461AA181
:102960006846FDF711FD6846FDF7A2FE82B22B46D0
:1029700069462068FFF76EFD6423322219A920689A
:10298000FFF710FD342119A8FDF728FF4FF47A60F6
:10299000FEF76EFF26B00120BDE8F0810C0000209C
:1029A00041540D0A000000004F4B000041542B43DE
:1029B0004D47463D310D0A0041542B434D47533D91
:1029C000222573220D0A00002573256300000000F4
:1029D0007047FFF795B8000030B593B030216846D6
:1029E000FDF7FCFE14210CA8FDF7F8FE1E4800249C
:1029F000016841F080510160006800F08050119042
:102A00001A48016841F4804101600068102100F417
:102A1000804011900A2000900120CDE90301022599
:102A2000CDE905050820CDE907406420CDE9090579
:102A300004200B906846FFF723FA08B172B6FEE750
:102A40000F20CDE90C054FF4A050CDE90E404FF416
:102A50008050109003210CA8FFF726F9002801D020
:102A600072B6FEE713B030BD40380240007000403F
:102A70000248016841F470010160704788ED00E090
:102A800001680C3151E8002F22F4907241E80023D4
:102A9000002BF5D10168143151E8002F22F001021A
:102AA00041E80023002BF5D1016B012909D1016810
:102AB0000C3151E8002F22F0100241E80023002BD6
:102AC000F5D1202180F842100021016370470000F9
:102AD00070B5044600680169E26821F44051114371
:102AE00001612169A068E2690843616911430843F3
:102AF0002168CA6849F20C639A430243CA6020689D
:102B00004169A26921F44071114341613149206852
:102B1000884202D03049884202D1FFF76FF901E0C4
:102B2000FFF75CF9E2690023192164253226B2F52A
:102B3000004F626828D0A0FB0101930F9200FDF7BF
:102B4000ABFB0146B0FBF5F06FF01802504301EB10
:102B5000800006EB0010B0FBF5F000F0F002B1FBD6
:102B6000F5F002EB0012B1FBF5F06FF018035843DB
:102B700001EB800006EB0010B0FBF5F000F00F0059
:102B800021681044886070BDA0FB010192185B4170
:102B9000FDF782FB0146B0FBF5F00201B1FBF5F059
:102BA0006FF01803584301EB800006EBC000B0FB48
:102BB000F5F000F0F80002EB4002B1FBF5F05843ED
:102BC00001EB800006EBC000B0FBF5F000F0070061
:102BD000D6E7000000100140001401402DE9F84341
:102BE000984617460D460446089E24E0701C22D0E5
:102BF000FEF752FFA0EB0800B0421AD8CEB1206811
:102C0000C168490717D5802D15D0402D13D0016814
:102C1000C94309070FD40168002540680090204689
:102C2000FFF72EFF0820606484F840500120BDE8C3
:102C3000F8830320FBE72068006835EA000004D031
:102C40000020B842D2D00020F1E70120F9E7FEE7EA
:102C500003B401984100009850EAC12018BF042035
:102C60004A0D18BF40F0010040F2FF72B2EB515F15
:102C700008BF40F00200012808BF052002B07047DD
:102C80000907090E002804DB00F1E02080F8001499
:102C9000704700F00F0000F1E02080F8141D70472D
:102CA00030380A2801D20120704700207047000008
:102CB00070B5FEF72DFFFFF78FFEFFF7B1FD35482A
:102CC0003349002401603449C0E901140C25C46073
:102CD000C0E904458461C461FFF79CFA08B172B68B
:102CE000FEE72C482D4948304FF4E1360160C0E939
:102CF0000164C460C0E904458461C461FFF78AFAD5
:102D000008B172B6FEE72348254990300160C0E95A
:102D10000164C460C0E904458461C461FFF77AFAC4
:102D200008B172B6FEE71B481E49D8300160C0E901
:102D30000164C460C0E904458461C461FFF76AFAB4
:102D400008B172B6FEE7134817490C380160042138
:102D500041604FF4FA718160FEF7A4FE08B172B6CB
:102D6000FEE7124CA0780628FCD2DFE800F003054D
:102D700007090B0F002006E0022004E0042002E017
:102D8000082000E0072000F013F8EBE7002070BDFA
:102D9000001001407400002000181500004400409D
:102DA00000480040001401400030004010000020A6
:102DB0002DE9F043804C814D8FB0A07806287AD25F
:102DC000DFE800F0031019CFD9EA7D48FFF7A6FB32
:102DD0007B484830FEF710FD79489030FFF75AFDE8
:102DE0000020BAE001212846FEF74CFE20710028A1
:102DF00070D00220B1E001212846FEF743FE207189
:102E00000028F6D0FFF7D8FC6846FFF781FB6C4836
:102E10001C2269462838FDF7AFFC694D664E283DF7
:102E2000012795ED040A0C36B5EEC00AF1EE10FA52
:102E300013DCD5ED030AF5EEC00AF1EE10FA0CDC56
:102E40006869012809D0FEF727FEA0600020A84687
:102E500060704FF47A795B4D61E068694FF0FF383C
:102E600030B1D5ED060AFDEEE00A10EE900A00E062
:102E70004046D5ED030ABDEEC00A53A2FDEEE00ABE
:102E800010EE103A3221CDED000A019002A8FDF7B4
:102E90008FFA02A8FEF7B6FC02A8FDF709FC82B281
:102EA0004748434602A9D830FFF7D4FA20780028D3
:102EB00010D1002507E00DE056F8250047A1FFF7E7
:102EC000EFFC6D1CEDB260798542F5D34CA0FEF7A6
:102ED00099FC27700FB0BDE8F08300BFFFF76CFCD2
:102EE0006846FFF715FB36481C2269462838FDF76F
:102EF00043FC98ED040A4046B5EEC00AF1EE10FA24
:102F000017DC90ED030AB5EEC00AF1EE10FA10DC02
:102F1000D8F8140001280CD04846FEF7A9FCFEF7AB
:102F2000BBFDA168401AA842D8D36078A0B10025A3
:102F300009E06770FBE700BF56F8250027A1FFF7FF
:102F4000AFFC6D1CEDB260798542F5D30FB02CA0BB
:102F5000BDE8F043FEF756BC05200FB0BDE8F043D6
:102F600026E7E0780328F7D2401CE0700FB0BDE8F8
:102F7000F043FEF751BE28A0FEF744FC00220221D8
:102F80002B48FEF784FD4FF48070FEF757FE0FB01C
:102F9000BDE8F043FEF75ABE26A0FEF733FC012140
:102FA0000846FEF763FE01212846FEF76BFD012867
:102FB00090D10220A0708DE7100000200008024090
:102FC00074000020C027090048523A25642C425260
:102FD0003A25642C444953543A25640043616E6891
:102FE0002062616F212054726520626920626F2027
:102FF0007175656E207472656E2078652100000021
:10300000414C4552545F4348494C445F4445544504
:10301000435445440000000053797374656D207378
:1030200068757474696E6720646F776E2E2E2E003B
:103030000004024053797374656D2053746F70708F
:1030400065640D0A0000000010B500290AD0087858
:10305000002807D005487844FDF7BCFF002801D0C0
:10306000002010BD0248784410BD0000320200006C
:103070002A0200000808A0F500114FEA310170474C
:1030800043004FEAD30C4FEA3C0C43401FBF4007BC
:103090000CF1605113F0FE4F70471CF0006F03D12C
:1030A00000200CF0004170470CF0004343EA5070E0
:1030B00010B540EACC0000F00EF800BF000000920E
:1030C0004FEA0001FFF7D6BF4FF000414FF000007C
:1030D000A1F5002170470EF1020E2EF0030E5EF8EE
:1030E000044B244204D44FEA4102B2F17F4F11D87D
:1030F0004FEA4003B3F17F4F0CD80ED14FEAD07C9A
:10310000B2F17F4F0CEB4C0C0CF1020C08BF4CEBF6
:10311000D17C04E04FF0080C01E04FEAD17C0CEBCD
:103120004C0324FA03F404F00704B4F1040C06D2AF
:103130000EEB840CBDE810404CF0010C6047DFE85A
:103140000CF0070802024FF00040A0F5800010BD0F
:103150000846420018BFD2F1807288BF00F00040DC
:1031600010BD4FF04070E1EE100A7047FDF792BCC1
:103170000000000000000000010203040607080927
:103180000000000001020304303132333435363799
:10319000383941424344454640305800303132339B
:1031A000343536373839616263646566403078009B
:1031B0000400000800000000000000020001000000
:1031C0001000000002400000000000A0000000000D
:1031D00005400000000000C8000000000C40000096
:1031E0000000409C00000000194000000020BCBE10
:1031F0000000000034400000BFC91B8E0000000426
:10320000B5400000504BCFD06607E2CF0100000070
:103210006C4100003E8251AADFEEA734010000009D
:10322000D9420000DCB5A0E23A301F97FFFFFFFF54
:10323000B4450000FD25A0C8E9A3C14FFFFFFFFF73
:10324000FF3F00000000008000000000FF3F000082
:1032500000000080000000002B3834383333343253
:103260003632333500000000A43200080000002090
:1032700030000000C4010008D432000830000020F3
:10328000C8070000E00100081C0000004300000027
:10329000F8FFFFFF0C0000000E0000000F00000010
:1032A0002E000000000000000000000000000000F0
:1032B000000000000000000000010000000000000D
:1032C000583200080100000010000000000000005B
:0432D0000024F400E2
:040000050800018965
:00000001FF
